:020000040800F2
:10000000D8040020D5000008C5120008AD11000872
:1000100000000000000000000000000000000000E0
:10002000000000000000000000000000A513000810
:100030000000000000000000C7120008A71300081D
:10004000E700000800000000E7000008E7000008E3
:10005000E7000008E7000008E7000008E7000008E4
:1000600000000000E7000008E7000008E7000008C3
:10007000E7000008E7000008E700000800000000B3
:10008000E70000080000000000000000E700000892
:1000900000000000E7000008E7000008E700000893
:1000A000E7000008E7000008E7000008E700000894
:1000B000E700000800000000000000000000000051
:1000C0000348854600F046F800480047B11800088C
:1000D000D80400200448804704480047FEE7FEE7B4
:1000E000FEE7FEE7FEE7FEE73D140008C10000085A
:1000F000D2B201E00270401C491EFBD270470022C0
:10010000F6E710B513460A4604461946FFF7F0FF16
:10011000204610BD70B50446002903D000202022DF
:10012000012310E0002801D00020C043C046C04693
:100130000DE02546D5408D4205D30D469540641B04
:100140001D46954040191546521E002DF1DC2146F2
:1001500070BD0000064C0125064E05E0E36807CCA3
:100160002B430C3C98471034B442F7D3FFF7ACFF55
:10017000941D0008B41D0008EFF3108072B6FEE76E
:10018000F0B588B007465C48874201D0052000E002
:1001900003200090002605960796334606970D68C3
:1001A0002846D84000D1A4E0012402949C40254078
:1001B00000D195E0049303964E68032332461A401B
:1001C000501E01281AD803230196079EB340B86831
:1001D0009843CF68B7400743069887600198C006E8
:1001E000C00F049EB040069F7F68A7430743069850
:1001F0004760069FD8437400019E08E01846079C9C
:10020000A040C043032A02D1079C1A461CE0FB68A9
:1002100003408F68A7401F43069BDF60069F022AAA
:1002200012D11C22059B1A400F239340049EF6080E
:10023000B600BE19376A9F430B6993403B43069F44
:1002400033624E6803223240A2403B6803401343AE
:100250003B60B003800F039E049B41D018243440C0
:100260000F20A04003229343244AD218136E8343E5
:10027000603205200007874208D02248874207D015
:1002800021488742009804D1022002E0002000E0CB
:100290000298A04018431060184800684B68DA02C2
:1002A00001D5284300E0A843144A106050689A0220
:1002B00001D5284300E0A843104A50601048406828
:1002C0009A0301D5284300E0A8430D4A5060106806
:1002D000DA0301D5284300E0A843049B084A1060D4
:1002E00008360598001D05900798801C07905B1C38
:1002F00055E708B0F0BDC046000C005000180240A1
:1003000080180240000400500008005000690840B6
:10031000411E8841704742690B4693430A401104CD
:10032000C91881617047002A01D0182200E02822F4
:1003300081507047054800687047C0461D480078E6
:1003400002490A68101808607047C046D4000020AF
:1003500010B501242002E2490A6802430A60032022
:1003600000F008F8002802D100F026F8002420460A
:1003700010BDC04670B50F4E31780124002916D04B
:1003800005467D20C000FFF7C5FE0146DF48006836
:10039000FFF7C0FE00F0B6FD032D08D8002806D1F7
:1003A0000024E0432946224600F022F875602046EA
:1003B00070BDC04604000020E0B50C484168012231
:1003C0001143416041681140019101991107026890
:1003D0000A4302600068084000900098082000F07E
:1003E00089FD102000F086FD8CBDC0463C10024007
:1003F00080B501F0EFF980BD70B5032569025E4E4E
:1004000032688A4302433260012149020024884253
:100410000DD1BE480168062048430649FFF77AFE21
:10042000801C7169490502D5401EFAD12C46204630
:1004300070BDC04640420F00012000024E490A68CC
:1004400002430A607047C046F0B585B00446807824
:100450008007484F01D4002548E001221107386B7E
:100460000840039006D1386B08433863386B084066
:10047000049004980291019216023F4F386830436D
:100480003860FFF757FF05463868304207D1FFF75D
:1004900051FF401B0228F7D90325364F1FE00325E3
:1004A00029023448006D084011D0616988420CD09F
:1004B000304B186D019909041A6D0A431A651A6DBB
:1004C0008A431A652D4908401865C00743D1294F52
:1004D000386D2A4908406169014339650025039850
:1004E000002803D1386B0299884338632068C1071C
:1004F00005D0B96C0322914362680A43BA6481064D
:1005000006D503210903BA6C8A43A1681143B96473
:10051000012142040CD5BA6C194B1A4026693243AA
:10052000BA645A1C964203D10A043B6813433B60E9
:1005300000050DD5880303229203BB6C9343E26848
:100540001343BB64824203D1080439680143396014
:10055000284605B0F0BDFFF7EDFE0646614F0548A1
:10056000006D8007B3D4FFF7E5FE801BB842F6D9D3
:1005700093E7C0460C10024000700040FFFCFFFFF4
:10058000FFFFFF3FFEB50D460121002800D1A4E08A
:10059000019102905248006807242040A84213D2DB
:1005A0004F490868A043284308604E4EFFF7C2FE3B
:1005B00007464B4800682040A84205D0FFF7BAFE26
:1005C000C01BB042F5D987E0029B18688107704EC6
:1005D0000CD5410703D5210332680A4332600F214D
:1005E000090232688A43996811433160C00718D103
:1005F0003B4800682040A84229D939490868A043EF
:1006000028430860374FFFF795FE064634480068D8
:100610002040A8421BD0FFF78DFE801BB842F5D9C1
:100620005AE05868032830D8810002A25158584A2D
:100630008F46C04645060008910600089B06000844
:10064000A506000811460839096849052CE0029AF8
:10065000107840074E4D05D5200329688143D068A6
:100660000843286000F056F8296889093C220A40AE
:100670001D4989581F220A40D040244908601B4860
:100680000068FFF777FE014627E0414A516D0AE016
:10069000114608390968890306E0114608390968D6
:1006A000890101E0916D8907019916D51168A1436F
:1006B000014311600B4FFFF73DFE064634480068CA
:1006C0003821014002984068C000814290D0FFF775
:1006D00031FE801BB842F1D903210846FEBDC04659
:1006E00000200240881300000C1D000808000020B4
:1006F0000648006826490968890A1C220A400449FC
:1007000089581F220A40D0407047C0460C00002084
:100710004C1D000810B51E4C20688006400F06D006
:10072000226838210A401B48082A07D110BD083C1E
:1007300020688004410F1848C84010BD22680A4054
:10074000102A15D1616803220A40032A00D01248FA
:1007500061684906490F491CFFF7DCFC61684904E0
:10076000490E48436168490F491CFFF7D3FC10BD8F
:1007700020680840202802D10120C00310BD206855
:100780000840182801D0002010BD7D20000210BDB7
:100790000810024000127A000024F400F0B587B07F
:1007A0000125002800D1E7E1049505900078C007F5
:1007B000F34F14D0B96838200840F9680325102891
:1007C00002D12940032902D0082800D097E03868D8
:1007D000800304D505984068002800D180E1059881
:1007E0000078800724D40598007800070CD5B868F5
:1007F0003821014018296DD1386E800704D505983D
:100800008069002800D16BE1059A1078400700D478
:100810003BE1B86838210140202900D082E0F86D22
:10082000800700D431E19068002800D02DE157E125
:10083000B96838200840F9680325102802D12940FA
:10084000022920D000281ED03868059AD1680029D6
:1008500000D1AFE00721C902884311690143396023
:10086000012001023A680A433A608402FFF762FD00
:1008700006463868204200D0AEE0FFF75BFD801BE3
:100880000228F6D978E139684905059B03D5D9686E
:10089000002900D124E17F2109027A688A4359693D
:1008A00009021143796000280DD10720C002396880
:1008B000814318690843386038688004400FB149A3
:1008C000C140B1480160B1480068FFF753FD0028FE
:1008D00089D005E1386E05998969002959D001212F
:1008E00008433866FFF726FD0646386E80078BD42E
:1008F000FFF720FD801B03250228F6D93CE105986F
:100900004168012254041004814207D005231B04CE
:1009100099426BD191043A680A433A6039680143BD
:1009200039606CE0012003900107F86B08400290E9
:1009300006D1F86B0843F863F86B084006900698F8
:10094000019193480068C00513D4039804029049AC
:10095000086820430860FFF7EDFC06468C480068F5
:10096000204206D1FFF7E6FC801B03250228F5D9BB
:1009700002E105988068874C012805D005284BD1F5
:10098000F86D04210143F965F86D03990843F86592
:100990004CE0012188433866FFF7CCFC0646386EF0
:1009A000800700D430E7FFF7C5FC801B0325022831
:1009B000F5D9E1E001210A02904338608C02FFF78B
:1009C000B9FC06463868204200D10CE7FFF7B2FCBC
:1009D000801B0228F6D9CFE07F200002796881438E
:1009E00005984069000208437860FCE63B68834351
:1009F0003B6090043A6882433A60002923D0FFF7B5
:100A000099FC06463868204200D0E8E6FFF792FCE1
:100A1000801B6428F6D9AFE0F96D039A9143F9651C
:100A2000F96D04229143F965002819D0FFF782FC83
:100A30000646F86D800720D4FFF77CFC801B032559
:100A4000A042F6D998E0FFF775FC064638682042C8
:100A500000D1C4E6FFF76EFC801B6428F6D98BE05A
:100A6000FFF768FC0646F86D800706D5FFF762FCC5
:100A7000801B0325A042F6D97EE002980028059A43
:100A800003D1F86B01998843F863D469002C72D0C4
:100A9000B86838210140102924D1012C20D0F868F1
:100AA00003210140059B1A6A914219D1702101402E
:100AB0005A6A914214D17F21090201409A6A1202B6
:100AC00091420DD11F2149040140DA6A9142049DEF
:100AD00052D1072149070840196B88424BD04BE09F
:100AE000049D49E00125290638680491884338604F
:100AF000FFF720FC0646022C0BD103956C063868E4
:100B0000204211D0FFF716FC801B03250228F6D9DE
:100B100032E06C063868204229D0FFF70BFC801BBE
:100B200003250228F6D927E0F8681C490140059EF4
:100B300020366DCE08431043190201432943314347
:100B4000F960386804990843386003980007F96829
:100B50000143F960FFF7EEFB0646386820420AD1F0
:100B6000FFF7E8FB801B03250228F6D904E0F868AC
:100B700009490140F9600025284607B0F0BDC0468C
:100B8000001002400024F4000C00002008000020A7
:100B90000070004088130000FCFFFEEF8C80C11F36
:100BA000F8B50092006843681A0CCA703F261E40D0
:100BB0008E701C0A1F2525404D701F047F0F0F707B
:100BC0000098002814D10F2000901F4607403009DC
:100BD0000A267043C0198870009F3C402809704362
:100BE000001948703A401802000F70438018C8700E
:100BF0000020F8BDF8B5006883684B600369144CA9
:100C00001C408C6004687F20274607408F70630279
:100C1000DB0FCB70250A28404870230C3F261E406E
:100C20000E70002A12D10F22009214403F090A22AE
:100C300057433C198C70009C2540000950434019D3
:100C40004870234030095043C01808700020F8BD98
:100C5000FF7F0000B0B500284ED004460546283579
:100C60006878002807D1002028701120C002606039
:100C7000204600F045F8022068702068C168C90667
:100C800036D4CA21416253214162204600F030FB34
:100C9000002827D120688169184A0A408261A1682A
:100CA00062690A43E169114382690A4382612169E9
:100CB0000161E168090402690A430261204600F00B
:100CC00045FB00280ED10720400721688A6982432E
:100CD0008A61206A626A0243A06910438A690243FA
:100CE0008A6100202168FF224A62002800D0B0BD3E
:100CF000012068700020B0BD0120B0BDBFFF8FFB98
:100D000010B588B000210691059104910391006807
:100D10000E49884218D101242002079060040290F5
:100D200002A8FFF791FB002801D0FFF725FAE003A6
:100D300007490A6A02430A62A0020A6802430A607B
:100D4000096801400191019808B010BD00280040D9
:100D50003C100240FEB504462820205C012801D149
:100D60000220FEBD0D46274628370220787001205C
:100D70003870002A029006D0E878000469780902E9
:100D80000E18A87814E06E78F00603D5EF20064020
:100D90000A366E70E878484988470004019030466A
:100DA000454EB04731460002019A8618A878884718
:100DB00001902068CA214162532141622D7820466A
:100DC00000F096FA00280AD101980643C020864315
:100DD0006803304321684860204600F0B7FA216874
:100DE000FF224A62002801D10299797000213970EE
:100DF000FEBDC046FEB504462820205C012801D176
:100E00000220FEBD16460D46274628370220787080
:100E10002068CA2141620121029139705321416247
:100E2000204600F065FA00283CD1236899694020EB
:100E30000840002E04D0002819D10020E87018E0E6
:100E40000193002801D10020E87028781A498847CA
:100E5000060468781849884700028619A878164958
:100E600088473018E97889050143019B09E0E87853
:100E70008005297809046A7812025118AA7889181D
:100E800001430E4808401860029880049969814324
:100E90009961E86829690143986908439861204687
:100EA00000F054FA2168FF224A62002801D1029919
:100EB000797000213970FEBDC91200087F7F7F0064
:100EC00070B504460068C168A0229143C160FFF775
:100ED00031FA0546064E2068C068800606D4FFF742
:100EE00029FA401BB042F6D3032070BD002070BD2C
:100EF000E903000002490A6802430A607047C046DD
:100F000000000140401E010E01D00120704707493A
:100F1000074A5060074803680B40032189075918A6
:100F2000016000209060072111607047FFFFFF0003
:100F300010E000E020ED00E0B0B58421415C012923
:100F400001D1022111E0024684322421516001685E
:100F50000B680C680125AC430C606C07A3430B6065
:100F6000002141661170202050600846B0BD70B568
:100F700004468420205C012801D1022070BD254652
:100F800084352420686020680668026801239A433B
:100F900002602B7007225206836893430B438360E1
:100FA000204600F04DFA20680660002028702021BD
:100FB000696070BD70B504468420205C012801D1B1
:100FC000022070BD254684352420686020680668AC
:100FD000026801239A4302602B700722520783683C
:100FE00093430B438360204600F02AFA2068066092
:100FF000002028702021696070BDB0B500282FD076
:101000000446054684356868002804D1002028700D
:10101000204600F029F82420686020680168012536
:10102000A9430160204600F0BFFA012819D0A06A48
:10103000002802D0204600F027FA0920C0022168CB
:101040004A6882434A6088682A2290438860086818
:10105000012202430A60204600F072FA054600E0D1
:1010600001252846B0BD0000B0B58CB0044607A8E5
:101070001421FFF744F8002506950595049503957E
:1010800020688F49884226D102950124019401A845
:10109000FFF7DAF9002801D0FFF76EF84E48C16873
:1010A0000B94A2031143C160C168114000910099E3
:1010B0000168214301600068204000900A9509956D
:1010C00002200890032040020790052000070099A5
:1010D00007A9FFF755F80CB0B0BDC046F0B585B014
:1010E000074688203858202827D10125002958D0C4
:1010F000002A56D001252C03B868A04204D13869D3
:10110000002801D1C8074CD10291039301943C46B9
:1011100054340025E563212060631646FFF70AF981
:10112000049066802680B8680199884202D13869A7
:10113000002804D0029E029502E0022531E000263C
:101140000399608800281ED0009180210025384630
:101150002A46049B00F0D6FA00281ED1002E04D0A7
:10116000307839688862761C08E0029A10880E4947
:10117000084039688862921C02922E460399608862
:10118000401E6080DDE700914021002538462A4658
:10119000049B00F0B7FA002801D0032501E02020CD
:1011A0006063284605B0F0BDFF010000FEE70000C7
:1011B00082B00948016804221143016001681140AE
:1011C00001910199016801221143016000681040FA
:1011D0000090009802B070473410024010B586B0FD
:1011E0001A480024FF217F22194B036001239B072B
:1011F0008460C260016144618461C46103624462CD
:101200000394029401940094FFF724FD002801D078
:10121000FEF7B2FF01A98C700C800594049402942F
:101220000A480122FFF7E6FD002801D0FEF7A4FFDF
:1012300008480090054869460122FFF78BFD002809
:1012400001D0FEF799FF06B010BDC0461000002087
:10125000002800400101012310B5184C0C2000218A
:10126000174AE1235B020CC421606160A160E06069
:10127000083C204618301421FEF741FF2046FFF7B6
:10128000BCFE002801D0FEF777FF0C480021FFF7D5
:1012900091FE002801D0FEF76FFF08480021FFF7FC
:1012A00066FE002801D0FEF767FF0448FFF744FE02
:1012B000002801D0FEF760FF10BDC0463C000020B2
:1012C00000380140FEE7704770B50446092806461D
:1012D00000D80926F0B20A252946FEF71BFF454330
:1012E000711B891B091900010843C0B270BD0000C1
:1012F000FEB504460068C16849061FD4C168802253
:101300000A43C260204629300190FFF713F80546D2
:101310000020029001260C4FF0432168C96889091A
:101320000143C8070CD1FFF705F8401BB842F3D3BF
:1013300003200290019908700026EDE7002000E0EC
:101340000298C0B2FEBDC046E903000070B5044675
:10135000134D28460C3801688022914301602868AB
:10136000800608D42046FFF7ABFD002810D02921C5
:101370000320605470BD28682026B04328602046B2
:10138000FFF79EFD002805D029210320605402E0CC
:10139000002070BD002029683143296070BDC0461F
:1013A00018280040704780B5FEF7C8FF80BD0000D8
:1013B000F0B591B004AC201D18252946FEF79FFE1C
:1013C0000026039602960196009601277802FFF701
:1013D00013F8FFF731F818480168A943016078074E
:1013E000109078040F9008200E900D9602250C9511
:1013F0000B95402009900896380207900697062022
:1014000004902046FFF7CAF9002803D0EFF31080BC
:1014100072B6FEE703960296072000900195684693
:101420002946FFF7AFF8002803D0EFF3108072B61B
:10143000FEE711B0F0BDC0465C10024070470000EE
:10144000F8B505466835416E002914D000688668F5
:101450008068400F0A49095C0A4F385CC000FEF7FB
:1014600059FE04463001400F0549095C385CC00054
:10147000FEF750FE01E00124204628806C80F8BD74
:101480008C1D0008841D0008B0B5816ACA0707D00A
:101490000122520403685C689443C26A22435A6082
:1014A0008A0707D50122120403685C689443026B23
:1014B00022435A604A0707D50122920403685C68F8
:1014C0009443426B22435A600A0707D50122D20394
:1014D00003685C689443826B22435A60CA0607D54E
:1014E0000122120303689C689443C26B22439A60F2
:1014F0008A0607D50122520303689C689443026C54
:1015000022439A604A0610D50122130502685468E6
:101510009C43456C2C4354609D4206D103235B05DC
:1015200054689C43836C23435360090607D501210B
:10153000C904026853688B43C06C18435060B0BD47
:101540007CB50546902000242C50FEF7F3FE06469D
:101550002868016809070BD5124800900120410551
:1015600000222846334600F0CDF800280ED1286826
:10157000006840070CD50B4800900120810500222F
:101580002846334600F0BEF8002801D0032407E0C7
:1015900028468430202141608160EC6604702C670D
:1015A00020467CBDFFFFFF01F8B5044600680168D6
:1015B000474B0B40A16822690A4361691143E26904
:1015C0001143194301600321090343688B43E16818
:1015D00019434160A169236A0B4381683D4D0D4069
:1015E0001D438560C36A0F218B43616A0B43C3624D
:1015F000394B984209D0394B984208D13848006895
:101600008007000F37A31F5802E0002700E01027D3
:10161000264668360125EB0336489A420ED1082F3C
:101620004FD8C0467F443F797F00BF44044A1C4ADC
:10163000154A4A4A1B00FFF75BF80FE0082F40D815
:101640007F443F797F00BF44043C2A3C233C3C3C20
:101650002900FFF74DF81DE0FFF75CF800282FD0B8
:10166000616A00E018464900234A515AFEF752FDCC
:10167000400061684A081018FEF74CFD0246103A17
:101680001E498A421DD201400007400F084315E061
:10169000FFF740F8002813D0616A00E018464900BF
:1016A000154A515AFEF736FD61684A081018FEF7D0
:1016B00031FD01461039114A914202D22168C860B9
:1016C00000250F48306000206067A0672846F8BDFD
:1016D000F369FFCFFFF4FF110044004000380140E0
:1016E000541002400000000004000000020000004E
:1016F000080000000024F4006C1D0008F0FF00004A
:1017000001000100FEB516460F460468014684310B
:101710000191089DE1693940C91B4A424A41B242E0
:1017200033D1691CF6D004460293FEF703FE029BF8
:10173000C01AA8422BD8002D29D020462468216841
:101740004907E7D5E1690905E4D50121CA0222620A
:10175000EFF3108481F310880D22520103681D6895
:1017600095431D6084F31088EFF3108481F3108893
:10177000026893688B43936084F310882020019A59
:101780005060906010460C301DE00020FEBDEFF36D
:101790001081012080F310880D22520123681D68FA
:1017A00095431D6081F31088EFF3108180F310885A
:1017B000226893688343936081F310882020019A04
:1017C0005060104608300021117020210160032074
:1017D000FEBD0000002805D40322034693430C4AB3
:1017E0009A1806E00F220240083A03239A43074B57
:1017F000D2188007C00E8901C9B28140FF238340FF
:1018000010689843084310607047C0461CED00E024
:1018100000E400E080B50520000701218903FEF700
:1018200075FD411E4842484180BD0000F0B587B0BB
:10183000002706970D4801680124214301600068D4
:1018400020400190019805200507102628463146C2
:101850002246FEF768FD059704970394029602A9B5
:101860002846FEF78DFC07B0F0BDC046341002409C
:1018700080B50246401E8241052000071021FEF778
:1018800052FD80BD80B5052000071021FEF743FD05
:1018900080BD0000E0B50190034801A90122034B7F
:1018A000FFF71CFC01988CBD3C000020FFFF0000EE
:1018B0008AB0FEF74DFDFFF77BFDFFF779FCFFF7E0
:1018C0008DFCFFF7C9FCFFF7B1FFFEF733FD0746BC
:1018D000C837FEF72FFD1E4CFEF72CFD0646FFF71E
:1018E00099FF002806D0BE42F6D3C836FFF7CAFFDC
:1018F0003746F1E7BE42EFD304AD00272046294624
:101900003A46FFF777F909A920463A46FFF748F922
:10191000A878104A1178814201D1012711E0107096
:1019200009ABD97803915A789B7804AD21462C787D
:101930006D7800940C460195029007A0039900F081
:101940001DF832363846FFF793FF3746C4E7C046E6
:1019500010000020D00000203230253032642E25C7
:101960003032642E2530326420253032643A2530FE
:10197000326420253032640D0A0000000FB410B527
:1019800003A9044B044A029800F018F810BC08BCE4
:1019900004B01847951800080000002002E008C8AD
:1019A000121F08C1002AFAD170477047002001E0D9
:1019B00001C1121F002AFBD170470000FFB58FB094
:1019C0000546002606E025280AD0129A119990476C
:1019D0006D1C761C28780028F5D1304613B0F0BD78
:1019E000002402940121B54A009400E004436D1CD8
:1019F0002B780846203B98401042F7D128782A28B7
:101A00000ED00222287801463039092916D80299C9
:101A10000A2359433039401814436D1C0290F1E7F2
:101A2000109802C802911090002904DA01204003A6
:101A3000044348420290022004436D1C28782E285B
:101A400017D10420044368786D1C2A280CD1109803
:101A50006D1C02C8009110900BE000990A225143BE
:101A6000303940186D1C009028780146303909291A
:101A7000F3D928786C2810D006DC4C281AD06828B6
:101A80000ED06A2817D104E0742813D07A2812D116
:101A900010E00120400504430CE00121090501E0AC
:101AA000032109050C436978814203D10120000517
:101AB00024186D1C6D1C2878692874D006DC002859
:101AC0008BD0632827D0642806D16CE06E2808D01C
:101AD00073282CD0752878D0129A11999047761CCB
:101AE0005FE06002400F022809D003280DD00428CF
:101AF000109801680DD00E60001D109051E01098F4
:101B0000F21701680E604A60F6E7109801680E80CF
:101B1000F2E70E70F0E710986A4601781173001D25
:101B200010900020507303A80190012005E0109848
:101B300002C8019110900020C04361070CD5002716
:101B400000E07F1C00998F420FDA8742F9DB019990
:101B5000C95D0029F5D108E0002700E07F1C87421D
:101B6000FCDB0199C95D0029F8D102982146C01B10
:101B70000290129B119A00F0B3F88019C61907E081
:101B8000019801990078491C0191129A1199904786
:101B90007F1EF5D22146129B119A029800F090F810
:101BA00086196D1C16E70A200190109901C9109141
:101BB0006102490F032900D100B2042900D140B2CB
:101BC000002803DA40422D2103E00DE0210504D571
:101BD0002B216A461173012103E0E10711D0202176
:101BE000F7E70CAF0C9114E00A200190109901C99D
:101BF00010916102490F032900D180B2042900D15C
:101C0000C0B20021EDE70199FEF784FA30317F1E62
:101C100039700028F7D104A8C01B2030019060075C
:101C200004D5012000048443009801E001200090C5
:101C30000199884201DD401A00E00020411800901F
:101C40000C9809180298401A0290E00306D4214625
:101C5000129B119A029800F043F8861900200D900B
:101C600008E003A9085C129A119990470D98401C4E
:101C7000761C0D900C998842F3DBE0030CD52146CD
:101C8000129B119A029800F02BF8861904E0129A20
:101C9000302011999047761C0099481E0090002929
:101CA000F5DC05E03878129A7F1C11999047761C74
:101CB0000199481E01900029F4DC6BE70928010016
:101CC000F8B5044600251E461746880404D405E0EE
:101CD00039462020B0476D1C641EF9D52846F8BD52
:101CE000FFB50446002581B01E46C80301D5302744
:101CF00000E02027880404D505E038460399B04762
:101D00006D1C641EF9D5284605B0F0BD000000002A
:101D100000000000000000000000000000000000C3
:101D200000000000000000000000000001000000B2
:101D30000200000003000000040000000600000094
:101D4000070000000800000009000000000000007B
:101D50000000000000000000000000000100000082
:101D60000200000003000000040000000100020067
:101D70000400060008000A000C00100020004000CB
:101D800080000001010101030701000008040204B2
:101D900008010101B81D000800000020100000002B
:101DA0009C190008C81D000810000020C80400008D
:101DB000AC19000800000000000000000100000055
:081DC000040000000024F400FF
:04000005080000C12E
:00000001FF
