:020000040800F2
:10000000D8040020D5000008751400084D1300081E
:1000100000000000000000000000000000000000E0
:100020000000000000000000000000005D15000856
:100030000000000000000000771400088915000887
:10004000E7000008E7000008E7000008E7000008F4
:10005000E7000008E7000008E7000008E7000008E4
:1000600000000000E7000008E7000008E7000008C3
:10007000E7000008E7000008E7000008E7000008C4
:10008000E7000008E7000008E7000008E7000008B4
:1000900000000000E7000008E7000008E700000893
:1000A000E7000008E7000008E7000008E700000894
:1000B000E7000008E7000008000000000000000062
:1000C0000348854600F096F800480047FD1B0008ED
:1000D000D80400200448804704480047FEE7FEE7B4
:1000E000FEE7FEE7FEE7FEE715160008C100000880
:1000F000F0B51FB40646002082B0054640240191A9
:1001000000901BE0019922460F46304600F061F84E
:10011000049A059B801A994110D31046194622462D
:1001200000F047F8361A8F4101972246012000213E
:10013000009F00F03EF838184D4100902046641EA4
:100140000028DFDC019B00982946324607B0F0BD4D
:10015000D2B201E00270401C491EFBD2704700225F
:10016000F6E710B513460A4604461946FFF7F0FFB6
:10017000204610BD70B50446002903D0002020227F
:10018000012310E0002801D00020C043C046C04633
:100190000DE02546D5408D4205D30D469540641BA4
:1001A0001D46954040191546521E002DF1DC214692
:1001B00070BD10B5202A04DB0146203A9140002092
:1001C00010BD914020239C1A0346E3401943904000
:1001D00010BD10B5202A04DB0846203AD04000218B
:1001E00010BD0B46D340D0402024A21A91400843B2
:1001F000194610BD064C0125064E05E0E36807CC04
:100200002B430C3C98471034B442F7D3FFF75CFF04
:10021000E020000800210008EFF3108072B6FEE72E
:10022000F0B588B00B460968002900D1B7E0024656
:100230005C48824201D0052000E0032000900124A8
:100240000020054606900746019407920FE03843C8
:10025000039F5649086019680846E040069E361D0F
:100260000696AD1C0837641C002800D197E0661E76
:1002700001980596B04001400291ECD003971946D1
:100280005B6803261F46049637407E1E012E13D856
:10029000049EAE40079A9268B243CE68AE401643C1
:1002A000079A9660DA06D20F059B9A40079B5B6817
:1002B00083431343079A5360032F0B46049E1ED0BB
:1002C0003046A840079AD26882439868A8401043F5
:1002D000079AD060022F12D11C20069A10400F26D8
:1002E0008640059AD2089200079B9A18136AB34376
:1002F0000E6986401E430B461662049E079A3046DE
:10030000A84011688143586882033040A8400843E0
:1003100007990860900F079A039F9CD018213940D5
:100320000F208840059FB7431F4EF619376E87434D
:1003300060360520000782420AD01D48824205D05F
:100340001C488242009804D1022002E0012000E013
:100350000020884038433060134800685E68F1022E
:1003600002D5029F384301E0029FB8430E4908605E
:100370004868B10201D5384300E0B8430A494860F3
:100380000A484068B10301D5384300E0B843074943
:1003900048600868F10300D559E7B84358E708B04A
:1003A000F0BDC046000C005000180240801802400A
:1003B000000400500008005000690840411E8841B8
:1003C000704742690B4693430A401104C918816182
:1003D0007047002A02D0182281507047282281508D
:1003E00070470000054800687047C0461F48007805
:1003F00002490A68101808607047C046D4000020FF
:1004000010B50124200208490A6802430A6003204B
:1004100000F00CF8002801D0204610BD00F02AF8AA
:100420000024204610BDC04600200240B0B505465D
:100430000E4801780124002916D07D20C000FFF766
:1004400099FE01462E480068FFF794FE00F038FE42
:10045000032D09D8002807D10024E043294622466D
:1004600000F026F8024805602046B0BD08000020D4
:100470000C00002080B582B00C4841680122114375
:1004800041604168114001910199110702680A43D6
:1004900002600068084000900098082000F008FE04
:1004A000102000F005FE02B080BDC0463C100240A6
:1004B00080B501F02FFB80BDF0B581B00325690246
:1004C000884E32688A430243326001214A02002486
:1004D000904212D1E4480268706940050DD58F0240
:1004E000062050430749FFF745FE801C401E03D0FD
:1004F00071693942FAD100E02C46204601B0F0BDC6
:100500000400002040420F000120000275490A68E3
:1005100002430A607047C046F0B587B0064680784F
:1005200080076F4F01D4002540E005960122110796
:10053000183F38680840049006D13868084338608E
:1005400038680840069006980297039101921602B7
:10055000644C206830432060FFF744FF054627685D
:10056000374006D1FFF73EFF401B0328F7D3032592
:1005700000E00025059E002F01D1594F0EE0032415
:100580002102574FB86808407CD0726A90427DD1F2
:10059000C00700D088E0002D00D197E00498002823
:1005A00004D1029A10680399884310603068C1072B
:1005B00044D1C1064AD4810551D4410558D481069D
:1005C00006D5032109033A688A43F168114339606B
:1005D000012142040ED53A68444B1A40F469224383
:1005E0003A605A1C944205D10A043B46483B1C68B9
:1005F00014431C6082020DD58A053B689343346A1C
:1006000023433B60944205D10A063B46483B1C68A5
:1006100014431C6000050ED58803032292033B6837
:100620009343326913433B60824204D10804483F3C
:10063000396801433960284607B0F0BD39680322A4
:10064000914372680A433A60C106B4D50321890216
:100650003A688A43B168114339608105ADD50321F9
:1006600089043A688A437169114339604105A6D506
:10067000032109053A688A43B1691143396081064B
:100680009FD4A5E70020C00785D00DE0B868019A87
:100690001204BB681343BB60BB689343BB608843D1
:1006A000B860C00700D176E70194FFF79BFE0646CD
:1006B0000D4CB868800705D4FFF794FE801BA0425C
:1006C000F7D3019D059E002D00D067E703200002AF
:1006D000B9688143706A0843B86000255EE7C04688
:1006E000541002400070004089130000FFFFFF3FDC
:1006F000F0B583B00D460121002800D1A5E001919D
:1007000002905348006807242040A84214D2504960
:100710000868A043284308604E4EFFF763FE074673
:100720004B4800682040A84206D0FFF75BFEC01B84
:10073000B042F5D9032188E0029B18688107734E07
:100740000CD5410703D5210332680A4332600F21DB
:10075000090232688A43996811433160C00719D190
:100760003B4800682040A84229D939490868A0437D
:1007700028430860374FFFF735FE064634480068C7
:100780002040A8421BD0FFF72DFE801BB842F5D9B0
:1007900003215AE0586803282FD8810001A251583C
:1007A0005A4A8F46B5070008010800080B080008E0
:1007B0001508000811460839096849052CE0029A15
:1007C00010784007514D05D5200329688143D06832
:1007D0000843286000F05CF8296889093C220A4037
:1007E0001D4989581F220A40D0401F4908601B48F4
:1007F0000068FFF71BFE014627E0444A516D0AE0FE
:10080000114608390968890306E011460839096864
:10081000890101E0916D8907019916D51168A143FD
:10082000014311600B4FFFF7DDFD064637480068B6
:100830003821014002984068C000814290D0FFF703
:10084000D1FD801BB842F1D90321084603B0F0BDA9
:100850000020024088130000582000080C000020EF
:10086000014800687047C0460400002010B5FFF73B
:10087000F7FF044600F06CFD000B800003490858A8
:100880001F210140CC40204610BDC04698200008E2
:1008900010B51E4C20688006400F06D02268382113
:1008A0000A401B48082A07D110BD083C2068800474
:1008B000410F1848C84010BD22680A40102A15D1BF
:1008C000616803220A40032A00D012486168490681
:1008D000490F491CFFF74EFC61684904490E484323
:1008E0006168490F491CFFF745FC10BD20680840AE
:1008F000202802D10120C00310BD2068084018281C
:1009000001D0002010BD7D20000210BD0810024063
:1009100000127A000024F400F0B587B00127002807
:1009200000D10AE2049705900078C007E94E2AD06A
:10093000B068F16803273A468A4338210140102005
:100940004840821850425041082914D0002812D142
:100950000598446805200004844200D1E2E00120AB
:1009600001048C4200D1E3E032688A4332608104A2
:1009700030688843DEE03068800304D5059840681D
:10098000002800D120E10598007880071AD4059846
:100990000078000746D405980078400700D443E16A
:1009A000B06838210140202900D089E0F06D80072F
:1009B00000D435E105988068002800D030E100209F
:1009C00001272EE1B1683820084010214140F2682B
:1009D00003273A4002235340CA185142514100288C
:1009E0002ED000292CD13068059AD168002900D179
:1009F000BDE00721C902884311690143316001202C
:100A0000010232680A4332608402FFF7EBFC0546BC
:100A10003068204200D0BCE0FFF7E4FC401B022815
:100A2000F6D98AE1B06838210140182931D1306EF9
:100A30008007B0D5059880690028ACD1049F7CE17F
:100A400031684905059B03D5D968002900D1BDE06F
:100A50007F21090272688A43596909021143716052
:100A600000280DD10720C00231688143186908436E
:100A7000306030688004400FB549C140B54801601E
:100A8000B5480068FFF7D2FC002800D17FE7049F3B
:100A900053E1306E05998969002900D183E0012175
:100AA00008433066FFF79EFC0546306E800700D590
:100AB00071E7FFF797FC401B03270228F5D93CE1BB
:100AC000012003900107F06B0840029006D1F06B03
:100AD0000843F063F06B08400690069801919F4F21
:100AE0003868C00510D40398040238682043386081
:100AF000FFF778FC05463868204205D1FFF772FC05
:100B0000401B0228F7D979E005988768052F5FD048
:100B1000012F61D0F06D03998843F065F06D0421D9
:100B200088435CE00120810432680A43326001049A
:100B3000306808433060FFF755FC05460120002C63
:100B40000AD044043068204200D01CE7FFF74AFC7A
:100B5000401B6428F6D9F0E044043068204200D1FC
:100B600011E7FFF73FFC401B6428F6D9E5E00121BF
:100B70000A02904330608C02FFF734FC054630686F
:100B8000204200D103E7FFF72DFC401B0228F6D9D5
:100B9000D3E07F200002716881430598406900021C
:100BA00008437060F3E6012188433066FFF71AFCC2
:100BB0000546306E800700D4EDE6FFF713FC401BBE
:100BC00003270228F5D9B8E0049FB6E0049FB4E0FB
:100BD000F06D04210143F165F06D03990843F06560
:100BE0005F4CFFF7FFFB0546002F0FD0F06D80072D
:100BF0000FD4FFF7F7FB401BA042F7D900200327D3
:100C00000FE0FFF7EFFB401BA042F7D8F06D800725
:100C1000F7D40298002803D1F06B01998843F06360
:100C20000120002800D188E00598C469002C00D17B
:100C300082E0B06838210140102903D1012C18D17D
:100C4000049F7AE0012739063068049188433060B8
:100C5000FFF7C8FB0546022C31D103977C063068AC
:100C6000204239D0FFF7BEFB401B03270228F6D9EC
:100C700063E0F06803210140059C226A91425FD144
:100C800070210140626A91425CD17F2109020140DA
:100C9000A26A1202914257D11F2149040140E26A1F
:100CA000914253D107214A060240236B9A42049F86
:100CB00043D149070840616B88423ED13CE07C0645
:100CC0003068204234D0FFF78DFB401B03270228F9
:100CD000F6D932E000100240F0682349014005983F
:100CE000026A456A836AC76A0197076B0297406B7D
:100CF0000A432A4319021143019A1143029A1143EC
:100D00000143F1603068049908433060039800079C
:100D1000F1680143F160FFF765FB0546306820424A
:100D20000AD1FFF75FFB401B03270228F6D904E036
:100D3000F0680C490140F1600027F8B207B0F0BD3F
:100D4000049FFAE7049FF8E7049FF6E7049FF4E79F
:100D50000024F400040000200C000020007000407B
:100D600088130000FCFFFEEE8C80C11170B50C46AC
:100D700000684168080CE0703F250D40A570CB0469
:100D8000DE0E66700904490F2170002A01D0002090
:100D900070BDC0B200F070FBE070304600F06CFB3C
:100DA0006070284600F068FBA070002070BD000055
:100DB00070B50C460068816861600169104B0B409A
:100DC000A36000687F250540A5704102C90FE1704E
:100DD00041044E0E66708002800E2070002A01D001
:100DE000002070BD00F048FB2070304600F044FB4E
:100DF0006070284600F040FBA070002070BDC04627
:100E0000FF7F0000B0B5002824D0044605462835F1
:100E10006878002807D1002028701120C002606087
:100E2000204600F04BF8022068702068C168C906AF
:100E300012D4CA21416253214162204600F038FB9E
:100E4000002810D0002827D02168FF224A620028FD
:100E500005D105E00120B0BD0020002800D0B0BDC4
:100E600001216970B0BD20688169134A0A4082611E
:100E7000A16862690A43E169114382690A43826198
:100E800021690161E168090402690A43026120469F
:100E900000F038FB0028D7D1072149072268936961
:100EA0008B439361216A636A0B43A1691943936978
:100EB0000B439361C8E7C046BFFF8FFB10B58CB0F2
:100EC000044602A82821FFF74AF920680F49884202
:100ED00001D00CB010BD012420020B9060040290E0
:100EE00002A8FFF719FB002801D0FFF795F9E003EE
:100EF00007490A6A02430A62A0020A6802430A60BA
:100F000009680140019101980CB010BD0028004013
:100F10003C100240F0B583B004462820205C012834
:100F200002D1022003B0F0BD0D462746283702202B
:100F3000787001203870002A029006D0E87800040A
:100F4000697809020E18A87813E06878C10603D5FD
:100F5000EF2108400A306870E87800F095FA697867
:100F60000604084600F090FA00028619A87800F0FE
:100F70008BFA01902068CA214162532141622D7889
:100F8000204600F095FA00280AD101980643C020B7
:100F900086436803304321684860204600F0B2FA77
:100FA0002168FF224A62002801D10299797000214C
:100FB000397003B0F0BD0000F0B581B004462820C0
:100FC000205C012802D1022001B0F0BD16460D467A
:100FD00027462837022078702068CA214162012103
:100FE0000091397053214162204600F061FA0028D7
:100FF00037D12068816940200840002E0AD000289F
:1010000001D10020E87028780004697809020E18E0
:10101000A87810E0002801D10020E870287800F0BE
:1010200033FA69780604084600F02EFA00028619A1
:10103000A87800F029FA3043E978890501430E4881
:10104000084021680860009880048A6982438A61A8
:10105000E8682A690243886910438861204600F0E5
:1010600051FA2168FF224A62002801D10099797063
:101070000021397001B0F0BD7F7F7F0070B504465C
:101080000068C168A0229143C160FFF7ABF9054633
:10109000064E2068C068800606D4FFF7A3F9401BFF
:1010A000B042F6D3032070BD002070BDE9030000FC
:1010B00002490A6802430A607047C04600000140C6
:1010C00080B500F04DFA80BDB0B58421415C0129A6
:1010D00001D10220B0BD0246843224215160016852
:1010E0000B680C680125AC430C606C07A3430B60D4
:1010F000002141661170202050600846B0BD70B5D7
:1011000004468420205C012801D1022070BD2546C0
:1011100084352420686020680668026801239A43A9
:1011200002602B7007225206836893430B4383604F
:10113000204600F071FA2068066000202870202107
:10114000696070BD70B504468420205C012801D11F
:10115000022070BD2546843524206860206806681A
:10116000026801239A4302602B70072252078368AA
:1011700093430B438360204600F04EFA20680660DC
:10118000002028702021696070BDB0B5002830D0E3
:101190000446054684356868002804D1002028707C
:1011A000204600F029F824206860206801680125A5
:1011B000A9430160204600F0F5FA012817D0A06A83
:1011C000002802D0204600F04BFA0920C002216816
:1011D0004A6882434A6088682A2290438860086887
:1011E000012202430A60204600F0A4FA0546284680
:1011F000B0BD0120B0BD0000B0B590B004460025E0
:101200000F950E950D950C950B9501A82821FEF7CD
:10121000A6FF20689649884201D010B0B0BD029563
:101220000124019401A8FFF777F9002801D0FEF707
:10123000F3FF5548C1680F94A2031143C160C16810
:10124000114000910099016821430160006820402D
:1012500000900E950D9502200C90032040020B90FB
:101260000520000700990BA9FEF7DAFF10B0B0BD0A
:10127000F0B585B0049307468820385820284CD113
:101280000E460125002949D0002A47D0012529030F
:10129000B868884204D13869002801D1F0073DD1EF
:1012A0003C46543400200290E063212060631546E0
:1012B0000191FFF797F8039065802580B868019940
:1012C000884210D138690028029601D0002102918D
:1012D000002808D1064606E0307839688862761C16
:1012E0006088401E6080608800281AD004980090B2
:1012F0008021002538462A46039B00F093FB0028F6
:101300001CD1002EE8D1029A10880F490840396894
:101310008862921C02922E46E2E70225284605B01A
:10132000F0BD049800904021002538462A46039BD2
:1013300000F078FB002803D00325EFE70325EDE755
:1013400020206063EAE7C046FF010000FEE70000DE
:101350000720010301480068084070470810024058
:1013600082B00948016804221143016001681140FC
:101370000191019901680122114301600068104048
:101380000090009802B070473410024010B586B04B
:101390001B480024FF217F221A4B036001239B0777
:1013A0008460C260016144618461C461036244621B
:1013B000059404940394029401940094FFF722FD91
:1013C000002801D0FEF728FF01A98C700C8005943D
:1013D000049402940A482246FFF7EEFD002801D04B
:1013E000FEF71AFF08480090054869460022FFF7FB
:1013F00091FD002801D0FEF70FFF06B010BDC046DA
:1014000010000020002800400101011710B5174806
:1014100000210C22164B016241628162E1246402C8
:1014200018C0016041608160C2600161416108389B
:10143000FFF7ABFE002801D0FEF7EEFE0B480021BF
:10144000FFF780FE002801D0FEF7E6FE07480021E6
:10145000FFF755FE002801D0FEF7DEFE0348FFF738
:1014600033FE002801D0FEF7D7FE10BD3C0000205F
:1014700000380140FEE770470F21014000090A22B1
:1014800042435018C0B27047B0B504460A280AD388
:101490000A3CE0B20A252946FEF76CFE4543641B70
:1014A0000001103000E000202043C0B2B0BD0000B9
:1014B000F0B581B004460068C168002649061CD416
:1014C000C16880220A43C260FEF78CFF054620688F
:1014D000C068400611D4274629370026FEF782FF50
:1014E000401B0749884201D303263E702068C0682C
:1014F000032E02D040210840F0D0F0B201B0F0BD80
:10150000E903000070B50446134D28460C38016805
:101510008022914301602868800608D42046FFF7A6
:10152000ADFD002810D029210320605470BD28682B
:101530002026B04328602046FFF7A0FD002805D0F4
:1015400029210320605402E0002070BD002029689A
:101550003143296070BDC046182800407047000024
:10156000B0B5401E010E01D00120B0BD054D686030
:101570000024E043032100F0CDFAAC60072028608E
:101580002046B0BD10E000E080B5FEF72FFF80BD23
:10159000F0B593B005AC38212046FEF7E0FD0026FB
:1015A000049603960296019601277802FEF784FFBF
:1015B000FEF7AAFF164801681822914301607807D8
:1015C0001290780611907804109008200F900E96D3
:1015D00002250D950C9540200A9009963802089036
:1015E0000797062005902046FFF796F900280CD1B2
:1015F0000496039607200190029501A82946FFF75B
:1016000077F8002801D113B0F0BDFEF705FEC04603
:101610005C10024070470000F0B581B004466834A9
:10162000416E002913D0006885688068400F0A4E1B
:10163000315C0A4F385CC000FEF79CFD60802801D9
:10164000400F315C385CC000FEF794FD01E00120E2
:101650006080208001B0F0BDD8200008D0200008B4
:10166000B0B5816ACA070CD18A0714D44A071CD4C2
:101670000A0724D4CA062CD48A0634D44A063CD499
:101680004CE00122520403685C689443C26A22431E
:101690005A608A07EAD50122120403685C68944301
:1016A000026B22435A604A07E2D501229204036882
:1016B0005C689443426B22435A600A07DAD50122E0
:1016C000D20303685C689443826B22435A60CA0663
:1016D000D2D50122120303689C689443C26B224353
:1016E0009A608A06CAD50122520303689C68944313
:1016F000026C22439A604A0610D501221305026843
:1017000054689C43456C2C4354609D4206D103238E
:101710005B0554689C43836C23435360090607D5DB
:101720000121C904026853688B43C06C18435060A0
:10173000B0BD000070B582B00546902000242C504A
:10174000FEF750FE06462868006800070CD51448CE
:1017500000900120410500222846334600F062F93E
:10176000002801D0032418E02868006840070CD541
:101770000B4800900120810500222846334600F0E6
:1017800051F9002801D0032407E0284684302021A5
:1017900041608160EC6604702C67204602B070BD29
:1017A000FFFFFF01F0B585B00446006801688D4A6F
:1017B0000A40A16823690B4365691D43E1690D4334
:1017C0001543056003252A0343689343E2681A43DF
:1017D0004260A669844A904202D0236A334300E003
:1017E00033468668814F37401F438760C36A0F26A0
:1017F000B343666A1E43C6627D4B98420BD090424B
:101800000BD07C4B984210D17B4B1B689B071B0F66
:101810007AA6F3580AE0002308E0774B1B681B0AFE
:101820000C261E4075A39B5900E0102327466837FD
:10183000904218D00126F203914226D1082B00D9FC
:1018400078E000257148C0467B441B795B009F44CB
:1018500004717871767171719300FFF707F80028B1
:1018600000D070E08BE0082B22D80022674EC046E3
:101870007B441B795B009F44041B251B201B1B1B07
:1018800057001646FEF7F2FF1AE0082B00D978E061
:1018900000255E487B441B795B009F44047279728B
:1018A000777272729000FEF7E1FF002872D189E032
:1018B00000260122002E07D13AE01646FEF7E8FF87
:1018C00032460646002E33D001920497606A4000EB
:1018D0004F49095A30460291FEF74CFC67687D4338
:1018E00001210391A8426FD3390388426FD80025A4
:1018F00030462946029A2B46FEF7FAFB020E0902F1
:10190000891800027A08801869413A462B46FEF78A
:10191000EFFB41494118414A9142049F039E58D828
:101920002168C860019E54E00120C603002ECBD17F
:1019300016464EE000200125002804D11FE0FEF7E6
:10194000A7FF00281BD0616A4900314A515AFEF7AF
:1019500011FC400061684A081018FEF70BFC0246B3
:10196000103A2C498A4234D201400007400F084304
:101970002168C8602E462CE010460028E3D12E4690
:1019800027E000200125002804D11BE0FEF780FF9E
:10199000002817D0616A49001D4A515AFEF7EAFB38
:1019A00061684A081018FEF7E5FB01461039194A2C
:1019B00091420ED2216880B2C8602E4609E01046DE
:1019C0000028E7D12E4604E0049F039E01E0049F17
:1019D000039E1348386000206067A067304605B05A
:1019E000F0BDC046F369FFCF00800040FFF4FF1157
:1019F0000044004000380140541002400000000044
:101A00000400000002000000080000000024F400B0
:101A1000B8200008F0FF000000FDFFFFFFFC0F00F2
:101A200001000100F0B585B004930D46044600683E
:101A3000C0690840401A414241410020914246D1CC
:101A4000174602902046843001900A9E01200090A3
:101A5000C002039007E02068C0692840401B414253
:101A60004141B94232D1701CF5D0FEF7BBFC002ECB
:101A70002FD00499401AB0422BD82068016849073A
:101A8000E9D5C169039A1142E5D003990162EFF3E8
:101A90001080009D85F310880D214901226813688C
:101AA0008B43136080F31088EFF3108085F3108868
:101AB00021688A68AA438A6080F310882020019AEE
:101AC0005060906000211170D0601FE0029805B056
:101AD000F0BDEFF31080009D85F310880D214901C2
:101AE000226813688B43136080F31088EFF3108033
:101AF00085F3108821688A68AA438A6080F3108879
:101B00002020019A5060002111709060032005B0E0
:101B1000F0BD0000002805D40322034693430C4A7D
:101B20009A1806E00F220240083A03239A43074B13
:101B3000D2188007C00E8901C9B28140FF238340BB
:101B400010689843084310607047C0461CED00E0E1
:101B500000E400E080B50520000701218903FEF7BD
:101B60002BFC411E4842484180BD0000F0B587B0C3
:101B70000027069705970497039702970D48016879
:101B80000124214301600068204001900198052054
:101B900005071026284631462246FEF71AFC05970F
:101BA00004970394029602A92846FEF739FB07B072
:101BB000F0BDC0463410024080B50246401E82414E
:101BC000052000071021FEF704FC80BD80B505202C
:101BD00000071021FEF7F5FB80BD000080B582B044
:101BE0000190044801A90122034BFFF741FB019832
:101BF00002B080BD3C000020FFFF00008AB0FEF76D
:101C0000FFFBFFF7C5FCFFF7ABFBFFF7BFFBFFF7E1
:101C1000FDFBFFF7ABFFFEF7E5FB0746C837FEF716
:101C2000E1FB1E4C01E0BE420DD2FEF7DBFB064697
:101C3000FFF790FF0028F6D0BE42F6D3C836FFF774
:101C4000C5FF3746F1E704AD0027204629463A464E
:101C5000FFF7AEF809A920463A46FFF787F8A878BB
:101C60000F4A1178814201D1012711E0107009ABB0
:101C7000D97803915A789B7804AD21462C786D78F9
:101C800000940C460195029006A0039900F01CF800
:101C900032363846FFF790FF3746C6E7100000207F
:101CA000D00000203230253032642E253032642EB0
:101CB0002530326420253032643A253032642025C4
:101CC0003032640D0A0000000FB410B503A9044BB4
:101CD000044A029800F018F810BC08BC04B0184779
:101CE000DD1B00080000002002E008C8121F08C128
:101CF000002AFAD170477047002001E001C1121F8D
:101D0000002AFBD170470000FFB58FB005460026C2
:101D100006E025280AD0129A119990476D1C761C6E
:101D200028780028F5D1304613B0F0BD0024029485
:101D30000121B54A009400E004436D1C2B7808464D
:101D4000203B98401042F7D128782A280ED0022252
:101D5000287801463039092916D802990A235943AF
:101D60003039401814436D1C0290F1E7109802C8F6
:101D700002911090002904DA0120400304434842F4
:101D80000290022004436D1C28782E2817D10420CD
:101D9000044368786D1C2A280CD110986D1C02C869
:101DA000009110900BE000990A22514330394018FD
:101DB0006D1C00902878014630390929F3D928781C
:101DC0006C2810D006DC4C281AD068280ED06A285F
:101DD00017D104E0742813D07A2812D110E0012022
:101DE000400504430CE00121090501E00321090538
:101DF0000C436978814203D10120000524186D1C31
:101E00006D1C2878692874D006DC00288BD06328E4
:101E100027D0642806D16CE06E2808D073282CD017
:101E2000752878D0129A11999047761C5FE060026D
:101E3000400F022809D003280DD00428109801680B
:101E40000DD00E60001D109051E01098F21701683F
:101E50000E604A60F6E7109801680E80F2E70E7097
:101E6000F0E710986A4601781173001D1090002069
:101E7000507303A80190012005E0109802C8019159
:101E800010900020C04361070CD5002700E07F1CA4
:101E900000998F420FDA8742F9DB0199C95D002969
:101EA000F5D108E0002700E07F1C8742FCDB0199A8
:101EB000C95D0029F8D102982146C01B0290129BEF
:101EC000119A00F0B3F88019C61907E0019801993A
:101ED0000078491C0191129A119990477F1EF5D202
:101EE0002146129B119A029800F090F886196D1CF9
:101EF00016E70A200190109901C910916102490F5B
:101F0000032900D100B2042900D140B2002803DA2D
:101F100040422D2103E00DE0210504D52B216A4626
:101F20001173012103E0E10711D02021F7E70CAF85
:101F30000C9114E00A200190109901C910916102DE
:101F4000490F032900D180B2042900D1C0B2002179
:101F5000EDE70199FEF70EF930317F1E3970002848
:101F6000F7D104A8C01B20300190600704D50120E0
:101F700000048443009801E0012000900199884208
:101F800001DD401A00E00020411800900C9809186B
:101F90000298401A0290E00306D42146129B119A3F
:101FA000029800F043F8861900200D9008E003A97C
:101FB000085C129A119990470D98401C761C0D9060
:101FC0000C998842F3DBE0030CD52146129B119A51
:101FD000029800F02BF8861904E0129A302011992B
:101FE0009047761C0099481E00900029F5DC05E01A
:101FF0003878129A7F1C11999047761C0199481ED7
:1020000001900029F4DC6BE709280100F8B50446CB
:1020100000251E461746880404D405E039462020D2
:10202000B0476D1C641EF9D52846F8BDFFB50446BF
:10203000002581B01E46C80301D5302700E02027C7
:10204000880404D505E038460399B0476D1C641E2A
:10205000F9D5284605B0F0BD0000000000000000E2
:102060000000000000000000000000000000000070
:10207000000000000000000001000000020000005D
:10208000030000000400000006000000070000003C
:10209000080000000900000000000000000000002F
:1020A000000000000000000001000000020000002D
:1020B000030000000400000001000200040006000C
:1020C00008000A000C001000200040008000000101
:1020D00001010103070100000804020408010101D5
:1020E000002100080000002010000000E81C00088B
:1020F0001021000810000020C8040000F81C00088F
:10210000000000000024F4000100000004000000B2
:04000005080000C12E
:00000001FF
