:020000040800F2
:10000000D0040020D500000809140008F5120008EB
:1000100000000000000000000000000000000000E0
:10002000000000000000000000000000A51400080F
:1000300000000000000000000B140008A7140008D6
:10004000E700000800000000E7000008E7000008E3
:10005000E7000008E7000008E7000008E7000008E4
:1000600000000000E7000008E7000008E7000008C3
:10007000E7000008E7000008E700000800000000B3
:10008000E70000080000000000000000E700000892
:1000900000000000E7000008E7000008E700000893
:1000A00000000000E700000800000000E700000872
:1000B000E700000800000000000000000000000051
:1000C0000348854600F034F800480047D11800087E
:1000D000D00400200448804704480047FEE7FEE7BC
:1000E000FEE7FEE7FEE7FEE7B1140008C1000008E6
:1000F00070B50446002903D000202022012310E01F
:10010000002801D00020C043C046C0460DE025466F
:10011000D5408D4205D30D469540641B1D46954044
:1001200040191546521E002DF1DC214670BD00001D
:10013000064C0125064E05E0E36807CC2B430C3C3A
:1001400098471034B442F7D3FFF7BEFF141E0008DF
:10015000341E0008EFF3108072B6FEE7F0B58AB0E7
:1001600007900A68002A00D1CDE06848079B8342C7
:1001700001D0052000E00320009001240020099018
:100180000890069002942546049113E003980643D4
:10019000566004990A681046E840089B1B1D0893A6
:1001A000099B9B1C0993069B083306936D1C002832
:1001B00000D1A8E0681E029F059087403A40E9D030
:1001C00003924E6810203043122816D11C20089943
:1001D00008400F2631468140059AD2089200079BBD
:1001E0009A18136A8B4304992C460D69354004997B
:1001F00085401D43156225464E6803223046104057
:10020000099B984001929A40079C236893430343BB
:100210002360D343122E1AD80120B0403E4A104228
:1002200013D0079CA0681840CA6829461D46099B40
:100230009A402B460D4604990243A2603009059A64
:1002400090406268BA4302436260032EA2D0079CCA
:10025000E06818408A68099B9A400243E260F00017
:1002600098D51821069801400F208840059B019AD7
:100270009343274AD618346E84436036052000071E
:10028000079B83420AD02548079B834208D0244815
:10029000079B8342009F04D1022702E0002700E071
:1002A00001278F40274337601A4F3E680498416802
:1002B000C80312D5039806433E607E68880312D4B3
:1002C000039886437E601668C80212D4039886435A
:1002D00016605668880213D558E7039886433E6037
:1002E0007E688803ECD5039806437E601668C802D2
:1002F000ECD50398064316605668880200D545E79A
:100300000398864344E70AB0F0BDC046001400508D
:100310000018024080180240060006000004005049
:100320000008005000690840411E8841704742693A
:100330000B4693430A401104C91881617047002A93
:1003400002D0182281507047282281507047000047
:10035000054800687047C0461A48406802490A6864
:10036000101808607047C046CC00002080B50320FC
:1003700000F008F8002801D0012080BD00F024F82A
:10038000002080BD70B50F4E71680124002916D081
:1003900005467D20C000FFF7ABFE0146E748006838
:1003A000FFF7A6FE00F0CCFD032D08D8002806D1EB
:1003B0000024E0432946224600F024F83560204618
:1003C00070BDC0460400002080B582B00C48416872
:1003D00001221143416041681140019101991107C7
:1003E00002680A43026000680840009000980820F4
:1003F00000F09EFD102000F09BFD02B080BDC046C5
:100400003C100240002805D40322034693430C4AC3
:100410009A1806E00F220240083A03239A43074B3A
:10042000D2188007C00E8901C9B28140FF238340E2
:1004300010689843084310607047C0461CED00E008
:1004400000E400E0F0B585B00468A103474F03D491
:100450000026E1073AD141E00390012002073D4622
:10046000203D29681140029106D129681143296075
:1004700029681140049104990192032100910A0214
:100480003968114010D0039A926991420AD03968B4
:1004900000043A6802433A603A6882433A6034485A
:1004A00001403960C8074FD13A683148024003988B
:1004B00081691143396000260299002903D1296816
:1004C000019A914329600468E10707D03946083949
:1004D0000A6803239A43836813430B60610608D4B8
:1004E000610411D421051AD4002C23D4304605B060
:1004F000F0BD032109033A46083A13688B43C168EB
:10050000194311606104EDD5032189073A46083A81
:1005100013688B434169194311602105E4D5032118
:1005200089033A46083A13688B43016919431160FD
:10053000002CDBD55C3F3A68E0218A4341681143D7
:100540003960304605B0F0BDFFF702FF0646724C39
:1005500038688007A8D4FFF7FBFE801BA042F7D9BC
:100560000398009E02990029A9D0ACE75C100240D4
:10057000FFFCFFFFF0B583B00D46012100281BD022
:10058000019102906348006807242040A84216D2D7
:1005900060490868A043284308605F4EFFF7D8FE13
:1005A00007465C4800682040A84208D0FFF7D0FE0C
:1005B000C01BB042F5D90321084603B0F0BD029E2E
:1005C00030688107714B10D5410707D57B2109029F
:1005D0001A688A430B210902511819600F21090278
:1005E0001A688A43F16811431960C0071BD1494852
:1005F00000682040A84229D946490868A0432843FA
:100600000860454FFFF7A4FE0646424800682040B8
:10061000A8421BD0FFF79CFE801BB842F5D90321EE
:10062000084603B0F0BD1946083908681C229043FB
:10063000029EB26802430A60706800282BD003282B
:100640002CD001282CD1096889032BE0029B187853
:1006500040074E4A05D520031168814318690843B5
:10066000106010688006400F06D0116838200140E5
:10067000082909D1464839E0104608380068800446
:10068000410FE848C84031E011680140202925D1D8
:100690000120C0032AE00968490503E0996D00E0E4
:1006A000596D8907019987D51968A14301431960DC
:1006B000DF4FFFF74DFE0646344800683821014001
:1006C00002984068C000814291D0FFF741FE801B34
:1006D000B842F1D90321084603B0F0BD11680140CA
:1006E000182901D0002001E07D200002116889094D
:1006F0003C220A40094989581F220A40D040CA4971
:100700000860CA480068FFF73DFE0146084603B08E
:10071000F0BDC04600200240881300008C1D000878
:10072000C148006819490968890A1C220A4004491D
:1007300089581F220A40D0407047C0460C00002054
:10074000CC1D0008114801688906490F06D00268CF
:1007500038210A40082A08D10D4870470838006837
:100760008004410FAF48C840704702680A40202A01
:1007700002D10120C003704700680840182801D04A
:10078000002070477D2000027047C04608100240DC
:1007900000127A00F0B583B00125002800D12FE1C6
:1007A000019502900078C0079D4F0CD0B8683821A1
:1007B0000140082957D13868800304D50298406861
:1007C000002800D185E002980078800728D402989C
:1007D000007800070DD5B8683821014018297CD170
:1007E000386E800705D5029880690028019D00D1E8
:1007F00006E1029A10780025400700D400E1B868AD
:100800003821014020297ED1F86D800700D4F7E01F
:100810009068002800D0F3E00125284603B0F0BD21
:10082000B8688006400F30D03868029EF168002911
:1008300077D00721C902884331690143396001201B
:1008400001023A680A433A608402FFF781FD0546D7
:100850003868204200D091E0FFF77AFD401B022863
:10086000F6D90325CCE002984268012001048A42AF
:1008700007D005231B049A4266D182043B681343C8
:100880003B603A680A433A6067E038684005029A7C
:1008900002D5D06800281CD07F20000279688143EF
:1008A00050690002084378600720C002396881431C
:1008B00010690843386038688004400F5949C140C6
:1008C0005948016059480068FFF75CFD002800D1D5
:1008D0007DE7019D284603B0F0BD386E0299896915
:1008E000002954D0012108433866FFF731FD064640
:1008F000386E800700D57CE7FFF72AFD801B0325B3
:100900000228F5D97CE09068012805D005284FD150
:10091000F86D04210143F965F86D01210143F96582
:1009200050E001210A02904338608C02FFF710FD6D
:1009300006463868204200D149E7FFF709FD801BD1
:1009400003250228F5D95BE03B688B433B608104BB
:100950003B688B433B60002A44D04404FFF7F8FC1B
:1009600005463868204200D02DE7FFF7F1FC401B18
:100970006428F6D90325284603B0F0BD7F20000285
:100980007968814370690002084378601FE701219C
:1009900088433866FFF7DCFC0646386E800700D4D3
:1009A00027E7FFF7D5FC801B03250228F5D927E0B0
:1009B000F96D01229143F965F96D04229143F965BE
:1009C000002820D01A4EFFF7C3FC0446F86D8007BC
:1009D00016D4FFF7BDFC001BB042F7D9032528460B
:1009E00003B0F0BD4404FFF7B3FC0646386820426C
:1009F00000D1E8E6FFF7ACFC801B03256428F5D99D
:100A0000284603B0F0BD0A4EFFF7A2FC0446F86D7D
:100A10008007F5D5FFF79CFC001BB042F7D9DDE756
:100A200000100240006CDC020C00002004000020DA
:100A300088130000F0B581B00092006843681A0C7A
:100A4000CA703F261E408E701C0A1F2525404D701F
:100A50001F047F0F0F700098002802D0002001B003
:100A6000F0BD0F2000901F46074030090A26704352
:100A7000C0198870009F3C402809704300194870D5
:100A80003A401802000F70438018C870002001B06F
:100A9000F0BD0000F0B581B0006883684B60036969
:100AA000164C1C408C6004687F20274607408F70DE
:100AB0006302DB0FCB70250A28404870230C3F26C9
:100AC0001E400E70002A02D0002001B0F0BD0F229F
:100AD000009214403F090A2257433C198C70009C35
:100AE00025400009504340194870234030095043C5
:100AF000C0180870002001B0F0BDC046FF7F0000A4
:100B0000F0B581B0002853D00446074624377878E2
:100B1000002804D100203870204600F065F802203B
:100B200078702068CA21416253214162C168490638
:100B30001FD4C16880220A43C260FFF709FC064641
:100B40002068C168490614D400970025F64FFFF7C6
:100B5000FFFB801BB84202D3032500984570206834
:100B6000C168032D02D040221140F0D0002D009F1B
:100B700019D181691B4A0A408261616822690A436E
:100B8000A169114382690A438261E1680161A16838
:100B9000090402690A430261204600F037FC054659
:100BA0002068002D08D0FF214162E8B201B0F0BDFD
:100BB0000125E8B201B0F0BD0721490782698A43E7
:100BC0008261E169226A0A436169114382690A43C9
:100BD0008261FF214162012078700025E8B201B0F6
:100BE000F0BDC046BFFF8FFF10B588B00021069151
:100BF000059104910391029100681049884201D047
:100C000008B010BD0124200207906004019001A8E3
:100C1000FFF718FC002801D0FFF79CFAE003084911
:100C20000A6A02430A62A0020A6802430A6009686B
:100C300001400091009808B010BDC0460028004057
:100C40003C100240F0B585B004462420205C012809
:100C500003D10225E8B205B0F0BD0D46214624318E
:100C600002204870012704910F70002A06D0E8780E
:100C70000004697809020B18AA7848E001976F7898
:100C8000F80603D5EF2007400A376F70EE78002290
:100C90000A2E039211D30A3EF0B20A210291FFF705
:100CA00027FA039A02994143761A00011030304323
:100CB000C1B20A2F06D2104611E010463043C1B22D
:100CC0000A2FF8D30A3FF8B20A2602913146FFF7FD
:100CD0000FFA0299039A4643BF1B00011030090422
:100CE0003843C0B20302AE780A2E0DD30A3EF0B2EA
:100CF0000A27039139460293FFF7FAF90399029BF9
:100D00004743F61B02011032019F0B433243206818
:100D1000CA214162532141622D78C16849062AD413
:100D2000C168039280220A43C2600293FFF710FB5E
:100D3000029B039A06462068C16849061BD40095A9
:100D400001970025784FFFF703FB801BB84202D3C1
:100D50000325049845702068C168032D02D0402205
:100D60001140F0D0002D02D0FF21416216E0019F1A
:100D7000039A029B009DD1B20B436903C0229343A7
:100D80000B434360204600F041FB05462068FF21ED
:100D90004162002D02D1049847700025002004997B
:100DA0000870E8B205B0F0BDF0B585B00446242067
:100DB000205C012803D10227F8B205B0F0BD174628
:100DC00023462433022058702568CA2068625320C5
:100DD0006862012204931A70E86840060391029247
:100DE00024D4E86880210143E960FFF7B1FA039950
:100DF00006462568E868400618D400970027FFF7E4
:100E0000A7FA801B4849884202D3032704984770F9
:100E10002568E868032F02D040210840EFD0002F5A
:100E200002D0FF20686279E00399009FAA69402000
:100E30001040002F04D0002819D10020C87018E0FD
:100E4000002801D10020C8700F7800220A2F0194D9
:100E500019D30A3FF8B20A2631461446FFF748F97B
:100E6000224603994643BF1B000110300CE0C878AE
:100E70008005029E0A7813044A781202D3188A78F1
:100E80009A18024331E010463843C0B203044C784C
:100E90000A2C0FD30A3CE0B20A26314617460093CB
:100EA000FFF726F9009B3A4603994643A41B00012D
:100EB000103000E010462043C0B207021F438C7878
:100EC0000A2C0AD30A3CE0B20A263146FFF710F991
:100ED00003994643A41B02011032029E2243D0B262
:100EE0000743C87882053A43019C104810402860A7
:100EF000B004AA698243AA61C86809690143A86964
:100F00000843A861204600F081FA07462068FF21C7
:100F10004162002F02D104984670002700200499F6
:100F20000870F8B205B0F0BDE90300007F7F7F00D4
:100F300002490A6802430A607047C0460000014047
:100F4000401E010E01D0012070470749074A50603A
:100F5000074803680B4003218907591801600020E6
:100F60009060072111607047FFFFFF0010E000E074
:100F700020ED00E0B0B58021415C012901D10220C3
:100F8000B0BD024680322421516001680B680C68B4
:100F90000125AC430C606C07A3430B600021416644
:100FA0001170202050600846B0BD0000F0B581B03F
:100FB0008022825C012A02D1022001B0F0BD0546E8
:100FC00068352422EA610668376832680124A24342
:100FD000326007225206B36893430B43B360406EFE
:100FE0000028204615D00097B768B068400F2B49FD
:100FF000095C2B4A105CC000FFF77AF80446380100
:10100000009F400F2549095C254A105CC000FFF78E
:101010006FF828806C803760002028762021E961F5
:1010200001B0F0BDF0B581B08022825C012A02D10E
:10103000022001B0F0BD054668352422EA61066849
:10104000376832680124A243326007225207B3682E
:1010500093430B43B360406E0028204615D00097A1
:10106000B768B068400F0D49095C0D4A105CC000BC
:10107000FFF73EF804463801009F400F0749095C1E
:10108000074A105CC000FFF733F828806C80376097
:10109000002028762021E96101B0F0BD0C1E000877
:1010A000041E0008F0B583B0002841D0044607466E
:1010B00080377868002804D100203870204600F07E
:1010C00057F824207860206801680125A943016051
:1010D000204600F05FFA012827D0A06A002802D03D
:1010E000204600F0EDF90920C00221684A688243D9
:1010F0004A6088682A229043886008680126304345
:1011000008600025FD60FFF723F9034620680168A9
:10111000090713D515480090710500222046029357
:1011200000F000FB002807D00325284603B0F0BDDF
:101130000125284603B0F0BD2068029B00684007E7
:101140000CD50A480090B1050022204600F0EAFACA
:10115000002803D00325284603B0F0BD2020786086
:10116000B8603D70E566284603B0F0BDFFFFFF01A3
:10117000B0B58EB000240D940C940B940A9409948D
:1011800008940794069405940494039400689D4978
:10119000884201D00EB0B0BD04940125029502A88A
:1011A000FFF750F9002801D0FEF7D4FF5C48C16872
:1011B0000D95AA031143C160C168114001910199C5
:1011C0000168294301600068284001900C940B9449
:1011D00002200A900320400209900520000701998F
:1011E00009A9FEF7BBFF0EB0B0BDC046F0B587B091
:1011F0000E460746842039580220202935D1012582
:10120000002E33D00492002A30D001210C03BA689A
:10121000A24204D13A69002A01D1F20763D10394B2
:101220003C4680342278012A05461FD00593224689
:101230003C4654340025D560117021200292506044
:10124000FFF786F80690049860802080B8680399BC
:1012500088420ED1386900280496059901D00022F1
:101260000492002807D1064605E00546284607B047
:10127000F0BD049505990298057007E0307839684B
:101280008862761C05996088401E6080608800280E
:1012900015D000918021002538462A46069B00F093
:1012A00041FA002815D1002EE8D1049A108810497F
:1012B000084039688862921C04922E46E2E7009149
:1012C0004021002538462A46069B00F02BFA0028CC
:1012D00003D00325284607B0F0BD202002994860BE
:1012E000284607B0F0BD0D46284607B0F0BDC04601
:1012F000FF010000FEE7000082B0094801680422F7
:1013000011430160016811400191019901680122B6
:1013100011430160006810400090009802B07047CF
:1013200034100240B0B586B01A4800240462FF2190
:101330007F22194B0125AD0718C00260416084600F
:10134000C4600461456103940294019400940838D8
:10135000FFF7D6FB002801D0FEF7FCFE01A98C7038
:101360000C800594049402940A482246FFF71CFD61
:10137000002801D0FEF7EEFE0848009005486946B7
:101380000022FFF75FFC002801D0FEF7E3FE06B065
:10139000B0BDC04610000020002800400101011728
:1013A00010B5174800210C22D44B016241628162C2
:1013B000E124640218C0016041608160C260016183
:1013C00041610838FFF76EFE002801D0FEF7C2FE2B
:1013D0000B480021FFF726FE002801D0FEF7BAFED9
:1013E00007480021FFF7E2FD002801D0FEF7B2FE1A
:1013F0000348FFF7BFFD002801D0FEF7ABFE10BD8C
:101400003800002000380140FEE77047F0B581B099
:101410000446234F38460C3801688022914301600E
:101420007D20C6003868800615D42068C168A022D7
:101430009143C160FEF78CFF05462068C0688006B6
:1014400023D4FEF785FF401BB042F6D925210320A7
:10145000605401B0F0BD38682021009188433860A5
:101460002068C168A0229143C160FEF771FF054664
:101470002068C06880060BD4FEF76AFF401BB042AC
:10148000F6D925210320605403E0002001B0F0BD0F
:1014900000203968009A1143396001B0F0BDC046A0
:1014A00018280040704780B5FEF756FF80BD000049
:1014B0000120C006014908607047C04608ED00E001
:1014C000B0B5816ACA070CD18A0714D44A071CD464
:1014D0000A0724D4CA062CD48A0634D44A063CD43B
:1014E0004CE00122520403685C689443C26A2243C0
:1014F0005A608A07EAD50122120403685C689443A3
:10150000026B22435A604A07E2D501229204036823
:101510005C689443426B22435A600A07DAD5012281
:10152000D20303685C689443826B22435A60CA0604
:10153000D2D50122120303689C689443C26B2243F4
:101540009A608A06CAD50122520303689C689443B4
:10155000026C22439A604A0610D5012213050268E4
:1015600054689C43456C2C4354609D4206D1032330
:101570005B0554689C43836C23435360090607D57D
:101580000121C904026853688B43C06C1843506042
:10159000B0BD0000F0B581B0044600680168544A4F
:1015A0000A40A16823690B4365691D43E1690D4346
:1015B000154305600322120343689343E2681A430C
:1015C0004260A269236A134382684A4D15401D4355
:1015D0008560C26A0F239A43676A3A43C262464AE9
:1015E000904209D0454A904208D14548406D800755
:1015F000000F44A2125802E0002200E0102226460A
:1016000068360125E803814211D1082A00D966E035
:101610007A4412795200974404621C623C6262620E
:101620002400FFF77DF8002837D0676A19E0082A00
:1016300055D8C0467A44127952009744045030502D
:101640004B5050503800FFF76BF8002846D0676ABF
:101650002DE02B4800680006400F411C2D48FEF786
:1016600047FD79002C4A515AFEF742FD400061685F
:101670004A081018FEF73CFD0246103A27498A42F4
:101680002DD201400007400F08432168C8600025A3
:1016900025E0FFF757F80028C7D100251FE01848BC
:1016A00000680006400F411C1A48FEF721FD790032
:1016B000194A515AFEF71CFD61684A081018FEF7D6
:1016C00017FD01461039154A914208D22168C860B9
:1016D000002504E0FFF736F80028B8D100251048AF
:1016E0003060002020676067284601B0F0BDC0462A
:1016F000F369FFCFFFF4FF110044004000380140C0
:101700000010024000000000040000000200000081
:1017100008000000006CDC02EC1D0008F0FF000077
:1017200001000100F0B587B016460F460546046873
:10173000E1693940C91B4A424A410020B2420FD1F7
:10174000069304952A4680320C9D002D0AD0691C10
:101750002CD1E1693940C91B4A424A41B242F8D012
:1017600007B0F0BD0392FEF7F3FD049CEFF3108188
:10177000012080F310880D22520123681D689543D3
:101780001D6081F31088EFF3108180F310882268C8
:1017900093688343936081F310882020039A5060FC
:1017A000002111709060032007B0F0BD02900392F9
:1017B00001200190C0020590049C06E0C0693840F9
:1017C000C01B41424141B14230D1FEF7C1FD0699F3
:1017D000401AA842CAD8206801684907EED5C169F5
:1017E000059A1142EAD005990162EFF31080019D3C
:1017F00085F310880D214901226813688B4313601B
:1018000080F31088EFF3108085F3108821688A68D0
:10181000AA438A6080F310882020039A5060906069
:1018200000211170D060032007B0F0BD029807B00E
:10183000F0BD80B50520000701218903FEF772FD88
:10184000411E4842484180BDF0B587B00027069749
:101850000D48016801242143016000682040019087
:101860000198052005071026284631462246FEF736
:1018700066FD059704970394029602A92846FEF791
:101880006DFC07B0F0BDC0463410024080B5024682
:10189000401E8241052000071021FEF750FD80BD4B
:1018A00080B5052000071021FEF741FD80BD000036
:1018B00080B582B00190044801A90122034BFFF7D3
:1018C00095FC019802B080BD38000020FFFF0000A9
:1018D00090B0FEF74BFD00240F940E940D940C94E1
:1018E0000B940A940894079406940594049437483A
:1018F00001681822914301600620099040200E9053
:1019000001200B9000020C9009A8FEF743FF00286D
:1019100003D0EFF3108072B6FEE705940720049021
:1019200006940794089404A801210391FEF722FE6F
:10193000002803D0EFF3108072B6FEE7FFF7DCFC5F
:10194000FFF7F0FCFFF72CFDFFF77EFFFEF700FD31
:101950000646C836FEF7FCFC01E0B7420DD2FEF7A2
:10196000F7FC0746FFF765FF0028F6D0B742F6D32D
:10197000C837FFF795FF3E46F1E709AC0026144D46
:10198000284621463246FFF785F804A92846324604
:10199000FFF750F8A4780F480078A04203980FD0C2
:1019A0000C48047004A8C1784278837809A80578A7
:1019B000407800950190029407A000F01FF830468F
:1019C0003237FFF763FF3E46C9E7C0465C1002406E
:1019D00010000020C80000203230253032642E254F
:1019E0003032642E2530326420253032643A25307E
:1019F000326420253032640D0A0000000FB410B5A7
:101A000003A9044B044A029800F018F810BC08BC63
:101A100004B01847B11800080000002002E008C810
:101A2000121F08C1002AFAD170477047002001E058
:101A300001C1121F002AFBD170470000FFB58FB013
:101A40000546002606E025280AD0129A11999047EB
:101A50006D1C761C28780028F5D1304613B0F0BDF7
:101A6000002402940121B54A009400E004436D1C57
:101A70002B780846203B98401042F7D128782A2836
:101A80000ED00222287801463039092916D8029949
:101A90000A2359433039401814436D1C0290F1E772
:101AA000109802C802911090002904DA0120400326
:101AB000044348420290022004436D1C28782E28DB
:101AC00017D10420044368786D1C2A280CD1109883
:101AD0006D1C02C8009110900BE000990A2251433E
:101AE000303940186D1C009028780146303909299A
:101AF000F3D928786C2810D006DC4C281AD0682836
:101B00000ED06A2817D104E0742813D07A2812D195
:101B100010E00120400504430CE00121090501E02B
:101B2000032109050C436978814203D10120000596
:101B300024186D1C6D1C2878692874D006DC0028D8
:101B40008BD0632827D0642806D16CE06E2808D09B
:101B500073282CD0752878D0129A11999047761C4A
:101B60005FE06002400F022809D003280DD004284E
:101B7000109801680DD00E60001D109051E0109873
:101B8000F21701680E604A60F6E7109801680E804F
:101B9000F2E70E70F0E710986A4601781173001DA5
:101BA00010900020507303A80190012005E01098C8
:101BB00002C8019110900020C04361070CD5002796
:101BC00000E07F1C00998F420FDA8742F9DB019910
:101BD000C95D0029F5D108E0002700E07F1C87429D
:101BE000FCDB0199C95D0029F8D102982146C01B90
:101BF0000290129B119A00F0B3F88019C61907E001
:101C0000019801990078491C0191129A1199904705
:101C10007F1EF5D22146129B119A029800F090F88F
:101C200086196D1C16E70A200190109901C91091C0
:101C30006102490F032900D100B2042900D140B24A
:101C4000002803DA40422D2103E00DE0210504D5F0
:101C50002B216A461173012103E0E10711D02021F5
:101C6000F7E70CAF0C9114E00A200190109901C91C
:101C700010916102490F032900D180B2042900D1DB
:101C8000C0B20021EDE70199FEF732FA30317F1E34
:101C900039700028F7D104A8C01B203001906007DC
:101CA00004D5012000048443009801E00120009045
:101CB0000199884201DD401A00E00020411800909F
:101CC0000C9809180298401A0290E00306D42146A5
:101CD000129B119A029800F043F8861900200D908B
:101CE00008E003A9085C129A119990470D98401CCE
:101CF000761C0D900C998842F3DBE0030CD521464D
:101D0000129B119A029800F02BF8861904E0129A9F
:101D1000302011999047761C0099481E00900029A8
:101D2000F5DC05E03878129A7F1C11999047761CF3
:101D30000199481E01900029F4DC6BE70928010095
:101D4000F8B5044600251E461746880404D405E06D
:101D500039462020B0476D1C641EF9D52846F8BDD1
:101D6000FFB50446002581B01E46C80301D53027C3
:101D700000E02027880404D505E038460399B047E1
:101D80006D1C641EF9D5284605B0F0BD00000000AA
:101D90000000000000000000000000000000000043
:101DA0000000000000000000000000000100000032
:101DB0000200000003000000040000000600000014
:101DC00007000000080000000900000000000000FB
:101DD0000000000000000000000000000100000002
:101DE00002000000030000000400000001000200E7
:101DF0000400060008000A000C001000200040004B
:101E00008000000101010103070100000804020431
:101E100008010101381E0008000000201000000029
:101E20001C1A0008481E000810000020C004000012
:101E30002C1A000800000000000000000400000050
:081E400001000000006CDC024F
:04000005080000C12E
:00000001FF
